:100000000C94E0000C94FF000C94FF000C94FF0093
:100010000C94FF000C94FF000C94FF000C94FF0064
:100020000C94FF000C94FF000C94FF000C94FF0054
:100030000C94FF000C94FF000C94FF000C94FF0044
:100040000C94FF000C94360A0C94FF000C94FF00F3
:100050000C94FF000C94120A0C94FF000C94FF0007
:100060000C94FF000C94CB070C94FF000C94010837
:100070000C94FF000C94FF000C94FF000C94FF0004
:100080000C94FF000C94FF000C94FF000C94FF00F4
:100090000C9479080C9405090C94CC080C94FF007E
:1000A0000C94FF000C94FF000C94FF000C94FF00D4
:1000B0000C94FF000C94FF000C94FF000C94FF00C4
:1000C0000C94FF000C94FF000C94FF000C945A0950
:1000D0000C94E6090C94AD090C94FF000C94FF00FD
:1000E0000C94FF000F0218022D020F020F021802DB
:1000F0000F020F020F0218020F020F020F020F026F
:100100000F0218020F020F020F024C024C0256029D
:100110004C024C0256027B027B027B027B027B027A
:100120007B02220337034803BA035C03BA03760356
:100130007F038503B1036A0340034E03BA036203DE
:10014000BA03BA03BA03BA03BA037003BA03540377
:1001500079049004B504D804F9041B05D005E6051C
:100160003E0563058805AC05A80442065B067406D7
:100170009706B806DB069007A307FE062307480785
:100180006C076E064E414E494E495459494E46CD74
:10019000CCCC3D0AD7233C17B7D13877CC2B32953E
:1001A00095E6241FB14F0A000020410000C842001C
:1001B000401C4620BCBE4CCA1B0E5AAEC59D7400E6
:1001C00011241FBECFEFD1E2DEBFCDBF12E0A0E011
:1001D000B2E0E0E2FBE100E00BBF02C007900D924D
:1001E000AC34B107D9F729E0ACE4B2E001C01D920C
:1001F000A53AB207E1F70E94FC030C948E0D0C9413
:1002000000000E947208E9ECF0E080818064808345
:100210000895EF92FF920F931F93CF93DF937C018A
:100220008B01EB01CB59DF4F8881F801E80FF11DFD
:100230006181662349F0C7010E94450A811107C008
:1002400088818F5F8883F0CF188280E001C081E0D1
:10025000DF91CF911F910F91FF90EF900895AF9292
:10026000BF92CF92DF92EF92FF920F931F93CF93A3
:10027000DF936B015A017901813061F0823029F0FE
:10028000C0E0D0E080E090E009C0CEE0D9E085E8B1
:1002900099E004C0CCE6D3E08FE899E018811123FF
:1002A00021F0113009F446C04DC01982FE01EB590E
:1002B000FF4F10828E010F5F1F4F61E172E0C80196
:1002C0000E94BE0B65E172E0C6010E94C90B892B3A
:1002D00049F067E172E0C8010E94BE0BB601C80197
:1002E0000E94BE0B65E172E0C5010E94C90B892B1B
:1002F00049F069E172E0C8010E94BE0BB501C80176
:100300000E94BE0B65E172E0C7010E94C90B892BF8
:1003100049F06BE172E0C8010E94BE0BB701C80151
:100320000E94BE0B6DE172E0C8010E94BE0B81E02D
:10033000888308C0BE010E940901811104C018828F
:1003400010E001C011E0812FDF91CF911F910F913B
:10035000FF90EF90DF90CF90BF90AF9008952F92D5
:100360003F924F925F926F927F928F929F92AF9245
:10037000BF92CF92DF92EF92FF920F931F93CF9392
:10038000DF93CDB7DEB728970FB6F894DEBF0FBE68
:10039000CDBF69833A012901FB82EA82DD82CC82EA
:1003A000BF82AE821401813071F0823029F0C12CFD
:1003B000D12C80E090E00DC09EE0C92E99E0D92EAE
:1003C00085E899E006C08CE6C82E83E0D82E8FE839
:1003D00099E0F6012081222321F0213009F4AFC0F9
:1003E000B9C0F6011182EB59FF4F10827601FFEF81
:1003F000EF1AFF0AB301C7010E94BE0B69A17AA1DF
:10040000C7010E94BE0B8981882E912CE3E18E16D4
:100410009104C8F5F401EE58FF4F0C949A0B67E174
:1004200072E0C7010E94BE0BB201C7010E94BE0B61
:10043000F981F430F1F018F4FF2329F105C0898126
:100440008830B9F08E30A9F069E172E0C7010E94EE
:10045000BE0BB801C7010E94BE0BE981E33099F0E1
:1004600018F4E23080F005C0F981F73061F0FD301A
:1004700051F06BE172E0C7010E94BE0B6A817B8183
:10048000C7010E94BE0BF4013797EC30F105E8F587
:10049000EB57FF4F0C949A0B6FE172E0C7010E947B
:1004A000BE0B6C817D81C7010E94BE0B89818B30A0
:1004B00038F4893050F4873041F08830A9F025C0F5
:1004C000E981EB3089F0EC3001F561E272E0C701BF
:1004D0000E94BE0B6E817F81C7010E94BE0BF98115
:1004E000F73099F0FA3089F063E272E0C7010E94B8
:1004F000BE0BB10107C065E272E0C7010E94BE0BEE
:100500006D8D7E8DC7010E94BE0B67E272E0C30154
:100510000E94C90B892B51F06BE272E0C7010E9467
:10052000BE0B6F8D78A1C7010E94BE0B6DE172E01A
:10053000C7010E94BE0B81E0F60180830BC0B601AB
:1005400028870E9409012885811105C0F6011082C3
:1005500020E001C021E0822F28960FB6F894DEBF7C
:100560000FBECDBFDF91CF911F910F91FF90EF9004
:10057000DF90CF90BF90AF909F908F907F906F90C3
:100580005F904F903F902F900895833011F128F4A1
:10059000813079F08230A9F008958630F9F0873003
:1005A000C1F0853001F58091C90080648093C90055
:1005B00008958091C90080628093C90060937A0990
:1005C00008958091D10080628093D1006093790971
:1005D00008958091C90080648093C9008091D10002
:1005E00080648093D1000895FC01108211821282F0
:1005F0001382148208951F93CF93DF93813061F0AB
:10060000823029F0C0E0D0E080E090E009C0CEE583
:10061000D3E08BE799E004C0C0E5D3E089E999E035
:10062000FC0120853185232B09F4A2C01881412FBC
:1006300050E04731510508F09DC0FA01EF56FF4FD9
:100640000C949A0B0E946D0A8E3379F028F4843250
:1006500009F090C081E04FC0823529F08F3609F053
:1006600089C082E048C084E046C08AE044C00E945D
:100670006D0A883419F48BE088837DC018827BC0B2
:100680000E946D0A8A3009F075C0188214E073C0A8
:100690000E946D0A8B3689F58CE02DC00E946D0A90
:1006A0008D3059F586E127C00E946D0A8A3009F025
:1006B00061C0188212E05FC00E946D0A8536E9F4BD
:1006C0008EE019C00E946D0A8A3009F053C018826A
:1006D00013E051C00E946D0A8D3079F484E10BC0A3
:1006E0000E946D0A8A3009F045C03FC00E946D0A21
:1006F000803519F487E088833DC018823BC00E9492
:100700006D0A8A33B9F588E0F6CF0E946D0A8983B5
:100710009A818C32F9F4FE01E90FF11D14821B81DC
:1007200081E0810F8B83CE0104960E94BA0B24E0F6
:10073000129FF0011124EB5FFD4F60837183828370
:1007400093831A828B818330A8F01B8289E088838F
:1007500015E011C021E0290F2A83C90FD11D8C8318
:1007600009C00E946D0A8E3329F4188216E003C076
:1007700010E001C011E0812FDF91CF911F9108950A
:100780000F931F93CF93DF93813081F0823039F044
:10079000C0E0D0E000E010E080E090E00DC0CEE0EE
:1007A000D9E005E819E08BE799E006C0CCE6D3E094
:1007B0000FE819E089E999E00E948E0AC8010E94B9
:1007C0008E0A18821982CB59DF4F1882DF91CF91A0
:1007D0001F910F910895982F862F913019F0923024
:1007E00019F008950C9401010E9453098091D100E1
:1007F00080648093D1000895CF93DF93CDB7DEB7A7
:1008000028970FB6F894DEBF0FBECDBF8FEF85B926
:1008100084B90E949F0A0E9441080E94220980E533
:1008200093E00E94F4028EE593E00E94F402789433
:1008300018861F821B821C821D821E82212C312C55
:10084000210127E02A8387E08983A5E36A2EA2E0BD
:100850007A2E81E00E94FB028330B1F018F48230DE
:1008600031F021C08430A9F0863001F11CC08091A4
:10087000970990919809892BB1F08FE899E00E942F
:100880006D0A0E9401010FC068E181E00E94C5026B
:100890000AC081E00E94C00380E593E00E94F40258
:1008A00010924D0219829F81992391F0A9EE2A1688
:1008B000A3E03A06410451044CF06FE381E00E944A
:1008C000C5021F82212C312C210107C0B1E0BF835A
:1008D000EFEF2E1A3E0A4E0A5E0AF9818F2F90E042
:1008E0008D30910508F072C1FC01E855FF4F0C9462
:1008F0009A0B64E28FE899E00E94450A68E58FE868
:1009000099E00E94450A6AE08FE899E00E94450A52
:100910008FE899E00E946D0A0E94010121E055C113
:100920008091970990919809892B09F04FC128E38C
:1009300032E0A901B90181E00E942F01811146C175
:100940008FE899E00E946D0A0E9401018CE037C196
:100950008091970990919809892B09F037C16FE32D
:1009600081E00E94C50292E02CC1A1E3B2E0BF93F6
:10097000AF937F926F9288E392E09F938F934C01A5
:100980005C016C017C0100E412E02BE332E04DE2FB
:1009900052E060E081E00E94AF010F900F900F9055
:1009A0000F900F900F90882309F407C1F2E00BC15C
:1009B000A1E3B2E0BF93AF937F926F9288E392E09E
:1009C0009F938F934C015C016C017C0100E412E069
:1009D00098014DE252E061E081E00E94AF010F908A
:1009E0000F900F900F900F900F908111EFC084E047
:1009F000E6C0A1E3B2E0BF93AF937F926F9288E32A
:100A000092E09F938F934C015C016C017C0100E4A8
:100A100012E02AE332E04DE252E060E081E00E9421
:100A2000AF010F900F900F900F900F900F908111CA
:100A3000CDC095E0C6C0A1E3B2E0BF93AF937F9273
:100A40006F9288E392E09F938F934C015C016C015D
:100A50007C010FE312E020E432E04DE252E061E07D
:100A600081E00E94AF010F900F900F900F900F90B8
:100A70000F908111ABC0A8E0A983A8C0A1E3B2E0A8
:100A8000BF93AF937F926F9288E392E09F938F938F
:100A90004C015C01F0E4CF2EF2E0DF2E7C018C01F2
:100AA0002BE332E044E452E067E081E00E94AF01D2
:100AB0000F900F900F900F900F900F90811186C0A4
:100AC000B9E0B98383C0A1E3B2E0BF93AF937F9253
:100AD0006F9288E392E09F938F934C015C01EFE368
:100AE000CE2EE2E0DE2E7C018C012AE332E048E4E7
:100AF00052E067E081E00E94AF010F900F900F90ED
:100B00000F900F900F90811161C0EAE0E9835EC001
:100B1000A1E3B2E0BF93AF937F926F92A0E4B2E003
:100B2000BF93AF9378E3872E72E0972E5401640150
:100B3000740184012BE332E044E452E06DE081E093
:100B40000E94AF010F900F900F900F900F900F9099
:100B500081113CC0FBE037C0A1E3B2E0BF93AF938B
:100B60007F926F92A0E4B2E0BF93AF9368E3862ECA
:100B700062E0962E54016401740184012AE332E09C
:100B800048E452E06DE081E00E94AF010F900F90C9
:100B90000F900F900F900F90811118C026E015C094
:100BA00080914D0291E0980F90934D02853008F4AA
:100BB000FDCE10924D02F7E006C023E006C0898307
:100BC00005C0998303C0F98301C0298382E00E9494
:100BD000FB028330C1F018F4823031F023C084303E
:100BE000B9F0863019F11EC080918D0990918E095F
:100BF000892BC1F085E899E00E946D0A682F82E098
:100C00000E94EB030FC068E182E00E94C5020AC0A7
:100C100082E00E94C0038EE593E00E94F4021092ED
:100C20004C021A8288858823B1F002C092E098872E
:100C30008B819C81AD81BE81893E9340A105B10528
:100C400054F06FE382E00E94C50218861B821C826A
:100C50001D821E820BC08B819C81AD81BE8101965D
:100C6000A11DB11D8B839C83AD83BE83EA818E2F32
:100C700090E08D30910508F066C1FC01EB54FF4F08
:100C80000C949A0B64E285E899E00E94450A68E4B6
:100C900085E899E00E94450A6AE085E899E00E94AB
:100CA000450A85E899E00E946D0A682F82E00E945B
:100CB000EB03F1E041C128E332E0A901B90182E090
:100CC0000E942F0181113FC185E899E00E946D0AC1
:100CD000682F82E00E94EB032CE034C16FE382E0D6
:100CE0000E94C50282E02CC1A1E3B2E0BF93AF93A2
:100CF0007F926F9288E392E09F938F934C015C0107
:100D00006C017C0100E412E02BE332E04DE252E0A2
:100D100060E082E00E94AF010F900F900F900F9063
:100D20000F900F90882309F409C1F2E005C1A1E3F7
:100D3000B2E0BF93AF937F926F9288E392E09F936C
:100D40008F934C015C016C017C0100E412E098017E
:100D50004DE252E061E082E00E94AF010F900F90FF
:100D60000F900F900F900F908111EDC084E0E8C0BC
:100D7000A1E3B2E0BF93AF937F926F9288E392E0DA
:100D80009F938F934C015C016C017C0100E412E0A5
:100D90002AE332E04DE252E060E082E00E94AF01DF
:100DA0000F900F900F900F900F900F908111CBC06C
:100DB00095E09A83C8C0A1E3B2E0BF93AF937F925E
:100DC0006F9288E392E09F938F934C015C016C01DA
:100DD0007C010FE312E020E432E04DE252E061E0FA
:100DE00082E00E94AF010F900F900F900F900F9034
:100DF0000F908111A8C0A8E0AA83A5C0A1E3B2E02A
:100E0000BF93AF937F926F9288E392E09F938F930B
:100E10004C015C0150E4C52E52E0D52E7C018C01C2
:100E20002BE332E044E452E067E082E00E94AF014D
:100E30000F900F900F900F900F900F90811183C023
:100E4000B9E0BA8380C0A1E3B2E0BF93AF937F92D1
:100E50006F9288E392E09F938F934C015C014FE384
:100E6000C42E42E0D42E7C018C012AE332E048E417
:100E700052E067E082E00E94AF010F900F900F9068
:100E80000F900F900F9081115EC0EAE0EA835BC083
:100E9000A1E3B2E0BF93AF937F926F92A0E4B2E080
:100EA000BF93AF9338E3832E32E0932E5401640155
:100EB000740184012BE332E044E452E06DE082E00F
:100EC0000E94AF010F900F900F900F900F900F9016
:100ED000811139C0FBE030C0A1E3B2E0BF93AF9312
:100EE0007F926F92A0E4B2E0BF93AF9328E3822E8B
:100EF00022E0922E54016401740184012AE332E05D
:100F000048E452E06DE082E00E94AF010F900F9044
:100F10000F900F900F900F90811115C026E012C016
:100F200080914C0291E0980F90934C02853008F428
:100F3000FCCE10924C02F7E0FA8305C023E002C019
:100F40008A8301C02A8383B187FB882780F980FFC9
:100F50002F9A80FD2F987DCC80E190E09093C50082
:100F60008093C400E0ECF0E0808182608083E1EC5B
:100F7000F0E0808188618083A2ECB0E08C918E608B
:100F80008C938081806C808380818F778083808147
:100F90008064808308951F920F920FB60F921124E0
:100FA0000BB60F922F933F938F939F93EF93FF93E3
:100FB00085B5856085BD16BC8091030290910402C1
:100FC000803B24E0920780F4E0910102F09102025C
:100FD0009C012F5F3F4F3093040220930302209126
:100FE000C600E80FF91F2083FF91EF919F918F9129
:100FF0003F912F910F900BBE0F900FBE0F901F903F
:1010000018951F920F920FB60F9211240BB60F92E4
:101010002F933F934F938F939F93EF93FF93409121
:101020000002842F90E02091030230910402821785
:10103000930768F4E0910102F09102024F5F409340
:101040000002E80FF91F80818093C6000CC081E088
:10105000809300028091C10080688093C10010924B
:10106000040210920302FF91EF919F918F914F9193
:101070003F912F910F900BBE0F900FBE0F901F90BE
:10108000189580E190E09093CD008093CC00E8EC3F
:10109000F0E0808182608083E9ECF0E0808188610B
:1010A0008083AAECB0E08C918E608C938081806EFE
:1010B000808380818F7D8083808180688083808130
:1010C0008F7B808342E350E062ED73E08FE899E02C
:1010D0000E94980A40E850E060E572E089E999E0F2
:1010E0000C94980A9091C80095FFFCCF8093CE0095
:1010F00008951F920F920FB60F9211240BB60F9204
:101100002F933F934F935F936F937F938F939F930F
:10111000AF93BF93EF93FF938091C80083FF23C0E9
:1011200083B187FB882780F980FF2F9A80FD2F9855
:101130002FEF83ED90E3215080409040E1F700C015
:10114000000083B187FB882780F980FF2F9A80FDFC
:101150002F982FEF83ED90E3215080409040E1F7EE
:1011600000C00000DDCF6091CE0089E999E00E94C7
:10117000450AFF91EF91BF91AF919F918F917F9120
:101180006F915F914F913F912F910F900BBE0F90F8
:101190000FBE0F901F9018951F920F920FB60F92CF
:1011A00011240BB60F922F933F934F935F936F933E
:1011B0007F938F939F93AF93BF93EF93FF93809110
:1011C000970990919809892B41F08FE899E00E9446
:1011D0006D0A8093CE008A3029F48091C9008F7BFC
:1011E0008093C900FF91EF91BF91AF919F918F9133
:1011F0007F916F915F914F913F912F910F900BBE17
:101200000F900FBE0F901F9018951F920F920FB660
:101210000F9211240BB60F928F93EF93FF9380914F
:101220007A098093CE00E9ECF0E080818F7D8083A5
:10123000FF91EF918F910F900BBE0F900FBE0F900B
:101240001F90189580E190E09093D5008093D40092
:10125000E0EDF0E0808182608083E1EDF0E080816C
:1012600088618083A2EDB0E08C918E608C93808148
:10127000806C808380818F7D808380818068808383
:1012800080818F7B808342E350E06CED78E085E8DD
:1012900099E00E94980A40E850E060ED72E08BE728
:1012A00099E00C94980A9091D00095FFFCCF809320
:1012B000D60008951F920F920FB60F9211240BB60D
:1012C0000F922F933F934F935F936F937F938F93DF
:1012D0009F93AF93BF93EF93FF938091D00083FFD1
:1012E00023C083B187FB882780F980FF2F9A80FD78
:1012F0002F982FEF81EE94E0215080409040E1F74D
:1013000000C0000083B187FB882780F980FF2F9AF7
:1013100080FD2F982FEF81EE94E021508040904087
:10132000E1F700C00000DDCF6091D6008BE799E0C7
:101330000E94450AFF91EF91BF91AF919F918F91CC
:101340007F916F915F914F913F912F910F900BBEC5
:101350000F900FBE0F901F9018951F920F920FB60F
:101360000F9211240BB60F922F933F934F935F93DD
:101370006F937F938F939F93AF93BF93EF93FF935D
:1013800080918D0990918E09892B41F085E899E033
:101390000E946D0A8093D6008A3029F48091D10092
:1013A0008F7B8093D100FF91EF91BF91AF919F917F
:1013B0008F917F916F915F914F913F912F910F90FE
:1013C0000BBE0F900FBE0F901F9018951F920F929B
:1013D0000FB60F9211240BB60F928F93EF93FF93DA
:1013E000809179098093D600E1EDF0E080818F7DD6
:1013F0008083FF91EF918F910F900BBE0F900FBEE6
:101400000F901F90189584B5826084BD8BE187BDD5
:10141000EEE6F0E080818260808385B5887F85BDBF
:1014200016BC08951F920F920FB60F9211240BB69F
:101430000F928F93EF93FF93E1ECF0E080818F7731
:10144000808385B5887F85BD16BC81E080934F027F
:101450001092040210920302FF91EF918F910F906E
:101460000BBE0F900FBE0F901F9018951F920F92FA
:101470000FB60F9211248F9381E080934E028F91CB
:101480000F900FBE0F901F901895FC01208531859D
:101490008481958128173907F0F4A681B78180816E
:1014A00091819C012F5F3F4F31832083A80FB91F8B
:1014B0006C9320813181848195812817390710F040
:1014C00011821082F894808591850196918780879A
:1014D000789480E0089581E00895FC0180859185ED
:1014E000892BD1F0A681B781828193819C012F5FE6
:1014F0003F4F33832283A80FB91F8C9144815581BC
:101500002417350710F0138212822085318521506F
:10151000310931872087089580E00895FC01F8940F
:101520001182108213821282118610867894089597
:10153000FC0177836683558344830C948E0A0E9452
:10154000AC070E94030AE1ECF0E0808180688083B0
:101550000895E89409C097FB3EF4909580957095A6
:1015600061957F4F8F4F9F4F9923A9F0F92F96E9EF
:10157000BB279395F695879577956795B795F11164
:10158000F8CFFAF4BB0F11F460FF1BC06F5F7F4F01
:101590008F4F9F4F16C0882311F096E911C0772313
:1015A00021F09EE8872F762F05C0662371F096E81C
:1015B000862F70E060E02AF09A95660F771F881FEB
:1015C000DAF7880F9695879597F9089557FD905803
:1015D000440F551F59F05F3F71F04795880F97FBF7
:1015E000991F61F09F3F79F08795089512161306B1
:1015F0001406551FF2CF4695F1DF08C016161706E0
:101600001806991FF1CF8695710561050894089514
:10161000E894BB2766277727CB0197F908950BD06D
:1016200078C069D028F06ED018F0952309F05AC020
:101630005FC01124EECFCADFA0F3959FD1F3950FC1
:1016400050E0551F629FF001729FBB27F00DB11D46
:10165000639FAA27F00DB11DAA1F649F6627B00DD6
:10166000A11D661F829F2227B00DA11D621F739FBF
:10167000B00DA11D621F839FA00D611D221F749FCD
:101680003327A00D611D231F849F600D211D822F14
:10169000762F6A2F11249F5750408AF0E1F088235B
:1016A0004AF0EE0FFF1FBB1F661F771F881F915068
:1016B0005040A9F79E3F510570F014C0AACF5F3F7C
:1016C000ECF3983EDCF3869577956795B795F7959B
:1016D000E7959F5FC1F7FE2B880F911D9695879523
:1016E00097F9089597F99F6780E870E060E00895A2
:1016F0009FEF80EC089500240A941616170618062A
:101700000906089500240A94121613061406050605
:101710000895092E0394000C11F4882352F0BB0F96
:1017200040F4BF2B11F460FF04C06F5F7F4F8F4FF9
:101730009F4F0895EE0FFF1F0590F491E02D09943F
:10174000A29FB001B39FC001A39F700D811D112402
:10175000911DB29F700D811D1124911D08950E944D
:10176000A00BA59F900DB49F900DA49F800D911D7F
:1017700011240895662777270C94D20BFB01DC0116
:101780000D900020E9F7119701900D920020E1F7EC
:101790000895FB01DC018D91019080190110D9F3AE
:1017A000990B08958F929F92AF92BF92CF92DF9242
:1017B000EF92FF920F931F93CF93DF938B016115ED
:1017C000710521F0DB018C9311969C93EC015E0175
:1017D000BFEFAB1ABB0A7501C8808C2D90E00E9448
:1017E000430D892B11F0E501F2CFEDE2CE1208C0D6
:1017F0007E01F2E0EF0EF11CC980DD24D39409C014
:101800002BE2C21205C07E0142E0E40EF11CC98049
:10181000D12CE701219743E050E06CE871E0CE0164
:101820000E944B0D892BC1F4239645E050E067E8F8
:1018300071E0CE010E944B0D892B09F4259601150C
:10184000110519F0D801CD93DC93D11006C160E0E9
:1018500070E080E89FE70AC143E050E064E871E08F
:10186000CE010E944B0D892B59F40115110509F485
:10187000F9C0B2E0EB0EF11CF801F182E082F2C097
:10188000F70160E070E0CB01C0E0D0E07F01A0EDA7
:10189000AA2EAC0C29E02A1530F14D2D4260B42E51
:1018A0002D2D2870D2FE04C0211125C0219623C001
:1018B00021112197A5E0B0E09B01AC010E94AF0B84
:1018C000660F771F881F991F6A0D711D811D911D5D
:1018D0006839A9E97A078A07A9E19A0760F0BD2D5E
:1018E000B660BB2E08C02EEFA2120AC0D3FC50C0B7
:1018F0004D2D4860B42E3196D701CC90DB2CC6CF4D
:101900002C2D2F7D253409F043C0A081AD3241F448
:10191000BD2DB061DB2E7F0122E0E20EF11C0CC078
:101920007F01AB3231F04FEFE41AF40A21E030E0EE
:1019300006C0A2E0EA0EF11CA18122E030E0A05333
:10194000AA3018F0E21AF30A23C0F70120E030E0D1
:101950002038BCE03B075CF4A901440F551F440F3D
:10196000551F240F351F220F331F2A0F311DAF01C2
:101970004F5F5F4F7A01A081A053AA3010F4FA01A3
:10198000E7CFD4FE03C0319521953109C20FD31F93
:10199000D1FE09C00115110531F0E1E0EE1AF108A0
:1019A000D801ED92FC920E94A90A2D2D23702330BC
:1019B00019F04B015C0106C04B015C01B7FAB09411
:1019C000B7F8B09420E030E0A901C501B4010E944D
:1019D000630D882309F43EC0D7FF06C0D195C19599
:1019E000D10903EA11E002C00BEB11E06801B8E194
:1019F000CB1AD10890E2E92EF12CCE15DF0574F058
:101A0000F8012591359145915491C501B4010E9489
:101A10000F0B4B015C01CE19DF09EFCF0450110908
:101A2000F594E7940C151D0541F78A2D880F8B2D31
:101A3000881F8F3F49F020E030E0A901C501B401C3
:101A40000E94630D811106C082E290E09093A40988
:101A50008093A309C501B40109C060E070E080E88B
:101A60009FEF04C060E070E080EC9FE7DF91CF91D2
:101A70001F910F91FF90EF90DF90CF90BF90AF90AC
:101A80009F908F900895911146C0803219F089502F
:101A90008550D0F70895FB01DC014150504088F09B
:101AA0008D9181341CF08B350CF4805E659161342E
:101AB0001CF06B350CF4605E861B611171F3990BA1
:101AC0000895881BFCCF03D008F481E00895990F96
:101AD0000008550FAA0BE0E8FEEF16161706E807F8
:101AE000F907C0F012161306E407F50798F0621B19
:101AF000730B840B950B39F40A2661F0232B242BEE
:101B0000252B21F408950A2609F4A140A6958FEF0C
:101B1000811D811D0895992788270895F894FFCF86
:101B200001040400000000B0420000B2420000B412
:101B300042473932002A00580059005A000A004929
:101B4000004A004B00520047303000460047303119
:101B5000004739310034303030002D323030002D24
:0C1B600031303000473032004730330095
:00000001FF
