:100000000C9454030C94B81D0C94D01D0C947303E1
:100010000C9473030C9473030C94E51D0C947303FC
:100020000C9473030C9473030C9473030C94730378
:100030000C9473030C9473030C9473030C94730368
:100040000C9473030C94A2080C9473030C94730324
:100050000C9473030C948B080C9473030C9473032B
:100060000C9473030C942F050C9464050C94730387
:100070000C9473030C9473030C9473030C94730328
:100080000C9473030C9473030C9473030C94730318
:100090000C94F9050C945F060C9425060C947303DC
:1000A0000C9473030C9473030C9473030C947303F8
:1000B0000C9473030C9473030C9473030C947303E8
:1000C0000C9473030C9473030C9473030C94EC065C
:1000D0000C9452070C9418070C94DF070C944508F5
:1000E0000C940B085E0960096209640966096809D5
:1000F0006A096C096E09730977097C097E09800910
:100100008209840986098B09900992099409960944
:100110009B099F09AF09B109B309B509B709B90925
:10012000BB09BD09C209C409C709CB09CD09CF095B
:10013000D109D309D509D709D909DB09DD09DF09B7
:10014000E109680AE309E609E909EC09EF09F2099E
:10015000F509F809FB09FE09010A040A070A0A0A57
:100160000D0A100A130A160A190A1C0A1F0A220A83
:10017000250A280A2B0A2E0A310A340A370A3A0AB3
:100180003D0A400A430A460A490A4C0A520A570ADB
:100190005D0A630A980A9D0AA20AA70AAC0AB10A74
:1001A000B60ABB0AC00AC50ACA0ACF0AD40AD90AC3
:1001B000DE0AE30AE80AED0AF20AF70AFC0A010B72
:1001C000D70BD70B060B0B0B120B170B1C0B210BB2
:1001D000260B2B0B300B350B3A0B3F0B440B490B0B
:1001E0004E0B530B5A0B5F0B640B690B6E0B730BAF
:1001F000780B7D0B840B890B8E0B930B980B9D0B4F
:10020000A20BA70BAE0BB30BB80BBD0BC20BC70BEE
:10021000CC0BD10BEA0BF60B020C0E0C1B0C280CB2
:100220003A0C4C0C5E0C700C810C920CA40CB50CAE
:10023000C60CD70CE80CF90C0A0D150D200D320D6B
:10024000890E920E9C0EA50EC60ED10EDC0EE70E88
:10025000F20E000F0E0F190F240F2F0F3D0F4A0F34
:100260005D0F6B0F790F870F940F9F0FA40FB20FC5
:10027000B70FBC0FC10FCC0FD70FE90FFB0F0D103D
:100280001F10311042104C1056106010781086105C
:1002900094100211021102119F10A410A910AE10A7
:1002A000B310B810BD10C210C710CC10D110D610AA
:1002B000DB10E010E510EA10EF10F410F910FE105A
:1002C000490D4C0D4F0D550E580E4C0D4F0D550E42
:1002D000580E490D4F0D550E580E490D4C0D550E2B
:1002E000580E490D4C0D4F0D520D520D520DA30DD0
:1002F000A30DA30DF80DF80DF80D730E6D0E700E15
:10030000730E6D0E700E730E6D0E700E13112011A4
:10031000341141114E115B1168117911861193113D
:10032000A011B111C211CD11DC11E711F211FD11B3
:10033000081213121C1241124A1256125F1268124E
:10034000731278127D1282128712901299129E12E5
:10035000A312A812B112BA12C512CE12D712E41209
:10036000F112F612FB12001305130A130F131413E4
:100370009F139F139F139F139F139F139F139F13ED
:100380001B131E13231328132D13321337133C137F
:10039000411346139F134B13501355135A135F13F6
:1003A000641369136E13731378137D138213871309
:1003B0008C13911396139B13B915E715EE15F515CC
:1003C000FF150616D615DD15A81645164C16A816E7
:1003D00053167D1684168E16A816A816A816A816EB
:1003E000A816101617161E16251636163819411996
:1003F000611938193819411938193819381941193A
:10040000381938193819381938194119381938195B
:1004100038193819411983193819381941193819F7
:10042000381938194119381938193819381938193B
:1004300041193819381938198C198C1996198C19D1
:100440008C199619BD19BD19BD19BD19BD19BD1954
:10045000C619C619C619C619C619C619C6198C19DE
:100460008C1996198C198C199619BD19BD19BD19BD
:10047000BD19BD19BD199F19A9199F199F19A9194E
:100480009F19C619C619C619C619C619C619C6199B
:10049000C619C619C619C619C619C6199F19A919A8
:1004A0009F199F19A9199F1900C0C101C30302C256
:1004B000C60607C705C5C404CC0C0DCD0FCFCE0EA4
:1004C0000ACACB0BC90908C8D81819D91BDBDA1A14
:1004D0001EDEDF1FDD1D1CDC14D4D515D71716D684
:1004E000D21213D311D1D010F03031F133F3F232F4
:1004F00036F6F737F53534F43CFCFD3DFF3F3EFE64
:10050000FA3A3BFB39F9F83828E8E929EB2B2AEAD3
:10051000EE2E2FEF2DEDEC2CE42425E527E7E62643
:1005200022E2E323E12120E0A06061A163A3A262B3
:1005300066A6A767A56564A46CACAD6DAF6F6EAE23
:10054000AA6A6BAB69A9A86878B8B979BB7B7ABA93
:10055000BE7E7FBF7DBDBC7CB47475B577B7B67603
:1005600072B2B373B17170B0509091519353529273
:1005700096565797559594549C5C5D9D5F9F9E5EE3
:100580005A9A9B5B99595898884849894B8B8A4A53
:100590004E8E8F4F8D4D4C8C4484854587474686C3
:1005A000824243834181804000C1814001C080413B
:1005B00001C0804100C1814001C0804100C1814033
:1005C00000C1814001C0804101C0804100C1814023
:1005D00000C1814001C0804100C1814001C0804113
:1005E00001C0804100C1814001C0804100C1814003
:1005F00000C1814001C0804100C1814001C08041F3
:1006000001C0804100C1814000C1814001C08041E2
:1006100001C0804100C1814001C0804100C18140D2
:1006200000C1814001C0804101C0804100C18140C2
:1006300000C1814001C0804100C1814001C08041B2
:1006400001C0804100C1814000C1814001C08041A2
:1006500001C0804100C1814001C0804100C1814092
:1006600000C1814001C0804100C1814001C0804182
:1006700001C0804100C1814001C0804100C1814072
:1006800000C1814001C0804101C0804100C1814062
:1006900000C1814001C0804100C1814001C0804152
:1006A00001C0804100C1814011241FBECFEFD1E2C3
:1006B000DEBFCDBF12E0A0E0B2E0E8E0F0E400E091
:1006C0000BBF02C007900D92AA36B107D9F723E1FC
:1006D000AAE6B2E001C01D92AC30B207E1F70E9479
:1006E00075030C9402200C9400008FEF85B984B937
:1006F0000E948A0A0E94A30580E10E944C150E9474
:10070000960680E20E944C150E94890780E40E94B0
:100710004C150E948A170E94E51C0E94A01D789427
:1007200080E10E94D01780E10E944C1580E20E9477
:10073000D01780E20E944C1580E40E94D01780E41C
:100740000E944C156AE172E080E10E949517809149
:1007500075028160809375026AE172E080E20E9416
:100760009517809173028160809373026AE172E051
:1007700080E40E94951780917102816080937102DC
:100780002FEF83E294EF215080409040E1F700C0CA
:10079000000010E0D0E0C0E00FEF609175026170E2
:1007A00080E10E94ED164091750246FB442740F916
:1007B00068E180E10E94B11680E10E94631580919A
:1007C000750282FF04C08B7F8064809375028091E4
:1007D000750281FF09C083B187FB882780F980FFFC
:1007E0002F9A80FD2F98C0E06091750267FB662705
:1007F00060F948EB5BE080E190E00E941217C130A5
:10080000B9F078F0CC3029F5E89A809175028064CF
:100810008093750241E06FE380E10E94B116C2E06F
:1008200018C0809175028D7F80937502C1E011C060
:1008300023E432E0A901B90180E10E942C18811162
:1008400008C080917502816080937502009319023F
:10085000CCE060917302617080E20E94ED164091DD
:10086000730246FB442740F968E180E20E94B1161A
:1008700080E20E9463158091730281FDD0E082FFC7
:1008800006C0809173028B7F8064809373026091B5
:10089000730267FB662760F948EB5BE080E290E05B
:1008A0000E941217D130B9F078F0DC3019F5E99ACE
:1008B0008091730280648093730241E06FE380E271
:1008C0000E94B116D2E016C0809173028D7F809392
:1008D0007302D1E00FC023E432E0A901B90180E244
:1008E0000E942C18811106C0809173028160809350
:1008F0007302DCE060917102617080E40E94ED1689
:100900004091710246FB442740F968E180E40E946F
:10091000B11680E40E9463158091710281FD10E0A0
:1009200082FF06C0809171028B7F80648093710288
:100930006091710267FB662760F948EB5BE080E439
:1009400090E00E9412171130B9F078F01C3019F5C0
:10095000ED9A8091710280648093710241E06FE3AF
:1009600080E40E94B11612E016C0809171028D7F62
:100970008093710211E00FC023E432E0A901B901B4
:1009800080E40E942C18811106C080917102816060
:10099000809371021CE0209117024091180260912F
:1009A000190286E69FE00E94FF1983B187FB882722
:1009B00080F980FF2F9A80FD2F9820917706309143
:1009C000780680916E0290E08217930730F4809150
:1009D00077069091780680936E02209145063091BB
:1009E000460680916E0290E08217930730F4809162
:1009F00045069091460680936E0220913B06309109
:100A00003C0680916E0290E08217930730F480914B
:100A10003B0690913C0680936E020E94A113BDCECE
:100A200080E190E09093C5008093C400E0ECF0E09A
:100A3000808182608083E1ECF0E080818861808346
:100A4000A2ECB0E08C918E608C9380818068808372
:100A500080818F7B808380818F7D808308951F922A
:100A60000F920FB60F9211240BB60F922F933F9354
:100A70008F939F93EF93FF9385B5856085BD16BCDB
:100A800080910202909103028837910580F4E091F1
:100A90000002F09101029C012F5F3F4F309303024F
:100AA000209302022091C600E80FF91F2083FF91D6
:100AB000EF919F918F913F912F910F900BBE0F90CF
:100AC0000FBE0F901F9018951F920F920FB60F92A6
:100AD00011240BB60F922F933F934F938F939F93B5
:100AE000EF93FF9340916A02842F90E020910202DD
:100AF000309103028217930768F4E0910002F091AD
:100B000001024F5F40936A02E80FF91F80818093D2
:100B1000C6000BC08091C1008F7D8093C1001092F0
:100B200003021092020210926A02FF91EF919F91CC
:100B30008F914F913F912F910F900BBE0F900FBE51
:100B40000F901F90189580E190E09093CD008093D6
:100B5000CC00E8ECF0E0808182608083E9ECF0E09A
:100B6000808188618083AAECB0E08C918E608C9348
:100B70008081806E808380818F7D8083808180688A
:100B8000808380818F7B808344E650E060EC74E05A
:100B900085E696E00E944D0944E650E06DE273E080
:100BA0008FE696E00E944D0943E050E06DEB74E063
:100BB00089E796E00C944D098091C80085FF15C027
:100BC00080916D0690916E06892B89F0F89485E6E8
:100BD00096E00E9422098093CE008091C900806433
:100BE0008093C900789480E0089581E0089582E0C0
:100BF00008951F920F920FB60F9211240BB60F9209
:100C00002F933F934F935F936F937F938F939F9314
:100C1000AF93BF93EF93FF936091CE008FE696E082
:100C20000E94D908FF91EF91BF91AF919F918F9151
:100C30007F916F915F914F913F912F910F900BBEDC
:100C40000F900FBE0F901F9018951F920F920FB626
:100C50000F9211240BB60F922F933F934F935F93F4
:100C60006F937F938F939F93AF93BF93EF93FF9374
:100C700080916D0690916E06892B71F085E696E065
:100C80000E942209811106C08091C9008F7B809348
:100C9000C90002C08093CE00FF91EF91BF91AF9148
:100CA0009F918F917F916F915F914F913F912F9184
:100CB0000F900BBE0F900FBE0F901F9018951F92B4
:100CC0000F920FB60F9211240BB60F922F933F93F2
:100CD0004F935F936F937F938F939F93AF93BF9344
:100CE000EF93FF938091810690918206892B59F0B2
:100CF00089E796E00E9422098093CE008091C90086
:100D00008F7D8093C900FF91EF91BF91AF919F912B
:100D10008F917F916F915F914F913F912F910F90A4
:100D20000BBE0F900FBE0F901F90189580E190E0C2
:100D30009093D5008093D400E0EDF0E08081826054
:100D40008083E1EDF0E0808188618083A2EDB0E0F6
:100D50008C918E608C938081806C808380818F7D6C
:100D6000808380818068808380818F7B808344E65C
:100D700050E064EC75E081E596E00E944D0944E6A0
:100D800050E061E973E08DE396E00E944D0943E095
:100D900050E06BE276E083E896E00C944D09809198
:100DA000D00085FF15C08091590690915A06892B75
:100DB00089F0F89481E596E00E9422098093D6009C
:100DC0008091D10080648093D100789480E0089570
:100DD00081E0089582E008951F920F920FB60F925E
:100DE00011240BB60F922F933F934F935F936F9302
:100DF0007F938F939F93AF93BF93EF93FF936091F4
:100E0000D6008DE396E00E94D908FF91EF91BF9143
:100E1000AF919F918F917F916F915F914F913F9192
:100E20002F910F900BBE0F900FBE0F901F90189533
:100E30001F920F920FB60F9211240BB60F922F93A1
:100E40003F934F935F936F937F938F939F93AF9352
:100E5000BF93EF93FF938091590690915A06892B87
:100E600071F081E596E00E942209811106C080910F
:100E7000D1008F7B8093D10002C08093D600FF9178
:100E8000EF91BF91AF919F918F917F916F915F9102
:100E90004F913F912F910F900BBE0F900FBE0F906F
:100EA0001F9018951F920F920FB60F9211240BB638
:100EB0000F922F933F934F935F936F937F938F93F3
:100EC0009F93AF93BF93EF93FF9380918B06909185
:100ED0008C06892B59F083E896E00E9422098093C2
:100EE000D6008091D1008F7D8093D100FF91EF914A
:100EF000BF91AF919F918F917F916F915F914F9132
:100F00003F912F910F900BBE0F900FBE0F901F902F
:100F1000189580E190E09093350180933401E0E3EF
:100F2000F1E0808182608083E1E3F1E0808188618B
:100F30008083A2E3B1E08C918E608C938081806C81
:100F4000808380818F7D80838081806880838081A1
:100F50008F7B808344E650E065EF73E08BE596E09D
:100F60000E944D0944E650E069E574E083E396E0B1
:100F70000E944D0943E050E068E276E087E496E0A5
:100F80000C944D098091300185FF15C08091630656
:100F900090916406892B89F0F8948BE596E00E9485
:100FA0002209809336018091310180648093310160
:100FB000789480E0089581E0089582E008951F927A
:100FC0000F920FB60F9211240BB60F922F933F93EF
:100FD0004F935F936F937F938F939F93AF93BF9341
:100FE000EF93FF936091360183E396E00E94D90866
:100FF000FF91EF91BF91AF919F918F917F916F91F1
:101000005F914F913F912F910F900BBE0F900FBEAC
:101010000F901F9018951F920F920FB60F921124E8
:101020000BB60F922F933F934F935F936F937F93E2
:101030008F939F93AF93BF93EF93FF93809163063A
:1010400090916406892B71F08BE596E00E9422094D
:10105000811106C0809131018F7B8093310102C0E4
:1010600080933601FF91EF91BF91AF919F918F9146
:101070007F916F915F914F913F912F910F900BBE98
:101080000F900FBE0F901F9018951F920F920FB6E2
:101090000F9211240BB60F922F933F934F935F93B0
:1010A0006F937F938F939F93AF93BF93EF93FF9330
:1010B00080914F0690915006892B59F087E496E075
:1010C0000E94220980933601809131018F7D8093A7
:1010D0003101FF91EF91BF91AF919F918F917F91DE
:1010E0006F915F914F913F912F910F900BBE0F9099
:1010F0000FBE0F901F90189584B5826084BD8BE160
:1011000087BDEEE6F0E080818260808385B5887FD0
:1011100085BD16BC08951F920F920FB60F92112431
:101120008F9385B5887F85BD16BC81E080936C0266
:1011300010920302109202028F910F900FBE0F9037
:101140001F9018951F920F920FB60F9211248F9334
:1011500081E080936B028F910F900FBE0F901F90D4
:101160001895FC01208531858481958128173907E0
:10117000F0F4A681B781808191819C012F5F3F4F60
:1011800031832083A80FB91F6C9320813181848122
:1011900095812817390710F011821082F894808504
:1011A0009185019691878087789480E0089581E009
:1011B0000895FC01208531858481958128173907A0
:1011C000E0F4A681B781808191819C012F5F3F4F20
:1011D00031832083A80FB91F6C93208131818481D2
:1011E00095812817390710F011821082808591852A
:1011F00001969187808780E0089581E00895FC0141
:1012000080859185892BE1F0A681B78182819381C8
:101210009C012F5F3F4F33832283A80FB91F8C910E
:10122000448155812417350710F013821282F894F7
:1012300020853185215031093187208778940895A0
:1012400080E00895FC0180859185892BD1F0A681ED
:10125000B781828193819C012F5F3F4F338322832B
:10126000A80FB91F8C91448155812417350710F0C0
:1012700013821282208531852150310931872087E0
:10128000089580E00895FC01F89411821082138281
:1012900012821186108678940895FC017783668304
:1012A000558344830C94430990E08831910508F0FC
:1012B00049C0FC01EE58FF4F0C944A1F80B118C082
:1012C00080B112C080B10BC080B126C080B11FC0F8
:1012D00082B32DC086B11BC086B11EC086B185FB0E
:1012E000882780F9089586B182958170089586B126
:1012F00083FB882780F9089586B119C086B11CC088
:1013000086B11EC082B318C082B31AC089B187FBF0
:10131000882780F9089589B186FB882780F9089588
:1013200089B1DDCF89B1E0CF89B1E2CF89B182FB4C
:10133000882780F9089589B186958170089589B1CB
:101340008170089580E00895482F50E040345105A1
:1013500008F0BEC0FA01E657FF4F0C944A1F90B147
:101360000DC090B112C090B113C09FB1A8C09FB181
:10137000ACC09FB199C09FB19CC09FB192FB99270F
:1013800090F9A6C09FB18AC09FB19170A1C09FB1D2
:10139000969591709DC09CB181C09CB1EFCF9CB1DE
:1013A00088C09CB181C09CB190C09CB188C093B1F1
:1013B00080C093B179C093B188C093B180C092B31B
:1013C00073C092B36BC090912E06DFCF90912E0622
:1013D000DFCF90912E06D2CF90912E065FC09091D4
:1013E0002E0662C090912E0664C090912E0667C0B2
:1013F00090912E066AC090912F06C7CF90912F062C
:10140000C7CF90912F06BACF90912F0647C09091E9
:101410002F064AC090912F064CC090912F064FC0C6
:1014200090912F0652C090913006AFCF9091300628
:10143000AFCF90913006A2CF909130062FC09091FF
:10144000300632C09091300634C09091300637C0DB
:10145000909130063AC09091310697CF9091310625
:1014600097CF909131068ACF9091310617C0909115
:1014700031061AC0909131061CC0909131061FC0F0
:101480009091310622C0909132067FCF9091320622
:101490007FCF9091320672CF9091320693FB9927BD
:1014A00090F916C0909132069295917011C090916A
:1014B000320695FB992790F90BC09091320696FB66
:1014C000992790F905C09091320697FB992790F9DA
:1014D000892F0895DC018FEF4FEF615068F02D9157
:1014E000242730E0F901E855FA4F44914827F901E3
:1014F000E855FB4F8491F1CF90E0942B089570E074
:101500007093030260930202E1ECF0E0808180625C
:10151000808308950E9410050C947C0890E080342C
:10152000910508F044C1FC01E653FF4F0C944A1F9B
:1015300060FD129A60FF1298089560FD109A60FF96
:101540001098089560FD119A60FF1198089560FD4C
:101550008E9A60FF8E98089560FD8F9A60FF8F9835
:10156000089560FD8C9A60FF8C98089560FD8D9AB7
:1015700060FF8D98089560FD8A9A60FF8A980895AB
:1015800060FD8B9A60FF8B98089560FD889A60FFDC
:101590008898089560FD899A60FF8998089560FD94
:1015A000739A60FF7398089560FD729A60FF729855
:1015B000089560FD759A60FF7598089560FD749AAE
:1015C00060FF7498089560FD779A60FF779808959A
:1015D00060FD769A60FF7698089560FD2D9A60FF11
:1015E0002D98089560FD2C9A60FF2C98089560FD59
:1015F0002F9A60FF2F98089560FD2E9A60FF2E9815
:10160000089560FDA49A60FFA498089580912E0625
:1016100060FB80F904C080912E0660FB81F9809305
:101620002E06089580912E0660FB82F9F8CF8091F6
:101630002E0660FB83F9F3CF80912E0660FB84F9C0
:10164000EECF80912E0660FB85F9E9CF80912E06C2
:1016500060FB86F9E4CF80912E0660FB87F9DFCF2F
:1016600080912F0660FB80F922C080912F0660FBDD
:1016700081F91DC080912F0660FB82F918C080910E
:101680002F0660FB83F913C080912F0660FB84F95D
:101690000EC080912F0660FB85F909C080912F064E
:1016A00060FB86F904C080912F0660FB87F9809368
:1016B0002F0608958091300660FB80F922C080914A
:1016C000300660FB81F91DC08091300660FB82F915
:1016D00018C08091300660FB83F913C080913006FA
:1016E00060FB84F90EC08091300660FB85F909C06B
:1016F0008091300660FB86F904C08091300660FB63
:1017000087F98093300608958091310660FB80F957
:1017100022C08091310660FB81F91DC080913106A5
:1017200060FB82F918C08091310660FB83F913C019
:101730008091310660FB84F90EC08091310660FB18
:1017400085F909C08091310660FB86F904C080915B
:10175000310660FB87F98093310608958091320647
:1017600060FB80F922C08091320660FB81F91DC0C8
:101770008091320660FB82F918C08091320660FBCE
:1017800083F913C08091320660FB84F90EC080910A
:10179000320660FB85F909C08091320660FB86F94C
:1017A00004C08091320660FB87F980933206089569
:1017B000EF92FF920F931F93CF93DF93DB01482F9C
:1017C00050E04635510508F01DC5FA01E65FFE4FB1
:1017D0000C944A1FE0916D028CE4E89FF001112403
:1017E000E452F74F9B01AAE6B0E0ECC3E0916D0232
:1017F0009CE4E99FF0011124E452F74F9B01ACE611
:10180000B0E0F2C3E0916D028CE4E89FF001112496
:10181000E452F74F9B01ABE6B0E0F8C3E0916D02F4
:101820009CE4E99FF0011124E452F74F2AE530E0EF
:101830000E945F1FFFC3E0916D028CE4E89FF001FE
:101840001124E452F74F20EA30E00E945F1F04C4E5
:10185000E0916D029CE4E99FF0011124E452F74FFE
:101860009B01A2EAB0E00E94501F648B758B868BAF
:10187000978BC8C4E0916D028CE4E89FF0011124BD
:10188000E452F74F9B01AAE6B0E00E94501F608F20
:10189000718F828F938FB6C4E0916D029CE4E99FB3
:1018A000F0011124E452F74F9B01ACE6B0E00E9436
:1018B000501F648F758F868F978FA4C4E0916D023F
:1018C0008CE4E89FF0011124E452F74F9B01ABE652
:1018D000B0E00E94501F60A371A382A393A392C49F
:1018E000E0916D029CE4E99FF0011124E452F74F6E
:1018F0002AE530E00E945F1F64A375A386A397A327
:1019000081C4E0916D028CE4E89FF0011124E4525F
:10191000F74F20EA30E00E945F1F60A771A782A7FF
:1019200093A770C4E0916D029CE4E99FF00111243B
:10193000E452F74F9B01A2EAB0E00E94501F64A757
:1019400075A786A797A75EC4E0916D028CE4E89F17
:10195000F0011124E452F74F20EA269FC001279F8F
:10196000900D112491AB80AB4DC4E0916D029CE4CD
:10197000E99FF0011124E452F74F20EA269FC001AD
:10198000279F900D112493AB82AB3CC4E0916D0274
:101990008CE4E89FF0011124E452F74F20EA269FDF
:1019A000C001279F900D112495AB84AB2BC4E0910F
:1019B0006D029CE4E99FF0011124E452F74F20EA04
:1019C000269FC001279F900D112497AB86AB1AC4A8
:1019D000E0916D028CE4E89FF0011124E452F74F8E
:1019E00020EA269FC001279F900D112491AF80AF60
:1019F00009C4E0916D029CE4E99FF0011124E452D6
:101A0000F74F20EA269FC001279F900D112493AF26
:101A100082AFF8C3E0916D028CE4E89FF0011124DD
:101A2000E452F74F75AF64AFEDC3E0916D029CE4F3
:101A3000E99FF0011124E65EF64F71836083E2C3F3
:101A4000E0916D028CE4E89FF0011124E45EF64F12
:101A5000CB01AA2797FDA095BA2F80839183A283FB
:101A6000B383D0C3C0916D02EC2EF12C9CE4C99FCE
:101A7000E0011124CE5DD64F6883862F90E0019758
:101A80008D31910508F011C1805A9E4FFC010C94D4
:101A90004A1F6CE670E00EC16AE570E00BC16BE6B0
:101AA00070E008C18CE48E9DE0018F9DD00D112463
:101AB000C452D74F8C819D81AE81BF814C8D5D8D8D
:101AC0006E8D7F8D481759076A077B0724F4EC0158
:101AD000C41BD50B03C0EA01C81BD90B8CE48E9D37
:101AE000D0018F9DB00D1124A452B74F4D915D913F
:101AF0006D917C91139758960D911D912D913C916C
:101B00005B9704171507260737072CF4CA01801BBB
:101B1000910B8C0102C0041B150B8CE48E9D90016F
:101B20008F9D300D11242452374FF9010C171D07DA
:101B300018F462A973A950C060A971A9C8010E94D4
:101B4000171FCE01A3C08CE48E9DE0018F9DD00DA8
:101B50001124C452D74F88859985AA85BB8548A191
:101B600059A16AA17BA1481759076A077B0724F48A
:101B7000EC01C41BD50B03C0EA01C81BD90B8CE4D4
:101B80008E9DD0018F9DB00D1124A452B74F4D9161
:101B90005D916D917C91139758960D911D912D91AA
:101BA0003C915B9704171507260737072CF4CA01E9
:101BB000801B910B8C0102C0041B150B8CE48E9DC5
:101BC00090018F9D300D11242452374FF9010C17CD
:101BD0001D0758F464A975A9CE010E94171FC801FA
:101BE0000E94171F71AB60AB60C060A971A955C09E
:101BF0008CE48E9DE0018F9DD00D1124C452D74FEF
:101C000088859985AA85BB8548A159A16AA17BA130
:101C1000481759076A077B0724F4EC01C41BD50B4E
:101C200003C0EA01C81BD90B8CE48E9DD0018F9DA7
:101C3000B00D1124A452B74F14964D915D916D9142
:101C40007C9117975C960D911D912D913C915F971A
:101C500004171507260737072CF4CA01801B910BC0
:101C60008C0102C0041B150B8CE48E9D90018F9D8E
:101C7000300D11242452374FF9010C171D0758F469
:101C800064A975A9CE010E94171FC8010E94171FE1
:101C900073AB62AB0AC062A973A9C8010E94171F87
:101CA000CE010E94171F75AB64AB60E070E002C00C
:101CB0006AE670E08CE48E9DD0018F9DB00D1124FA
:101CC000AE5DB64F8C9190E045978930910568F4F0
:101CD00083589E4FFC010C944A1F6CE670E005C0CF
:101CE0006BE670E002C06AE670E08CE48E9DE00175
:101CF0008F9DD00D1124C45ED64F288139814A8131
:101D00005B81DB010E94661F688379838A839B83E2
:101D100079C2E0916D028CE4E89FF0011124E05E4D
:101D2000F64F08C0E0916D029CE4E99FF001112498
:101D3000EF5DF64FA08366C2E0916D028CE4E89FF0
:101D4000F0011124ED5DF64FF5CF20916D029CE47A
:101D5000299FF0011124EC5DF64FCB01A0E0B0E02B
:101D600080839183A283B38381E0820F80936D028D
:101D7000843130F010926D02809132068F7703C06B
:101D8000809132068068809332063CC220EA269F0A
:101D9000C001279F900D1124909391068093900687
:101DA00031C220EA269FC001279F900D11249093F5
:101DB0008F0680938E0626C220EA269FC001279FA9
:101DC000900D112490939506809394061BC220EAEF
:101DD000269FC001279F900D112490939306809316
:101DE000920610C29B01AAE6B0E00E94501F6093C9
:101DF000960670939706809398069093990602C270
:101E00009B01ACE6B0E00E94501F60939A0670936D
:101E10009B0680939C0690939D06F4C120EA269F22
:101E2000C001279F900D11249093A1068093A006D6
:101E3000E9C120EA269FC001279F900D11249093AD
:101E40009F0680939E06DEC120EA269FC001279F41
:101E5000900D11249093A3068093A206D3C19B01F9
:101E6000ABE6B0E00E94501F6093A4067093A506F5
:101E70008093A6069093A706C5C12AE530E00E948C
:101E80005F1F6093A8067093A9068093AA0690939B
:101E9000AB06B8C180E090E00E94261E2DEC3CEC21
:101EA0004CE45EE30E948C1E6093AC067093AD061A
:101EB0008093AE069093AF06A5C19B01AAE6B0E061
:101EC0000E94501F6093B0067093B1068093B206D3
:101ED0009093B30697C19B01ACE6B0E00E94501FFF
:101EE0006093B4067093B5068093B6069093B706D8
:101EF00089C19B01ABE6B0E00E94501F6093BA0617
:101F00007093BB068093BC069093BD067BC12AE507
:101F100030E00E945F1F6093BE067093BF068093FF
:101F2000C0069093C1066EC120EA269FC001279F7C
:101F3000900D11249093B9068093B80663C17093F5
:101F4000C3066093C2065EC19B01A0E1B7E20E9496
:101F5000501F6093C4067093C5068093C606909385
:101F6000C70650C17093C9066093C8064BC17093F1
:101F7000CB066093CA0646C17093CD066093CC062B
:101F800041C12AE0269FC001279F900D1124909304
:101F9000CF068093CE0636C12AE0269FC001279F38
:101FA000900D11249093D1068093D0062BC1E0911F
:101FB0006D028AE1E89FF0011124ED52F94F9B0177
:101FC000A0EAB0E00E94501F6083718382839383F4
:101FD00019C1E0916D029AE1E99FF0011124ED52DF
:101FE000F94F9B01A2EAB0E00E94501F6483758301
:101FF0008683978307C1E0916D028AE1E89FF00133
:102000001124ED52F94F9B01A1EBB0E00E94501F4B
:102010006087718782879387F5C0E0916D029AE1AE
:10202000E99FF0011124ED52F94F9B01A0EAB0E0C5
:102030000E94501F6487758786879787E3C0E09169
:102040006D028AE1E89FF0011124ED52F94F9B01E6
:10205000A2EAB0E00E94501F608B718B828B938B41
:10206000D1C0E0916D029AE1E99FF0011124ED5297
:10207000F94F20EA269FC001279F900D1124958BD0
:10208000848BC0C0E0916D028AE1E89FF0011124C9
:10209000ED52F94F678BB6C0E0916D029AE1E99F6E
:1020A000F0011124ED52F94F668BACC0E0916D0246
:1020B0008AE1E89FF0011124ED52F94F608FA2C030
:1020C00080916D029AE1899FF0011124ED52F94F40
:1020D000618F8F5F80936D02843130F010926D02BA
:1020E000809132068F7B4FCE8091320680644BCE3A
:1020F0009B01A4E6B0E00E94501F6093CC0E709349
:10210000CD0E8093CE0E9093CF0E7CC09B01A4E6A3
:10211000B0E00E94501F6093D00E7093D10E809358
:10212000D20E9093D30E6EC020EA269FC001279F47
:10213000900D11249093D50E8093D40E63C07093AC
:102140009D0560939C055EC070939F0560939E05FE
:1021500059C07093A1056093A00554C07093A30566
:102160006093A2054FC07093A5056093A4054AC073
:102170007093A7056093A60545C07093A905609369
:10218000A80540C07093AB056093AA053BC070934F
:10219000AD056093AC0536C07093AF056093AE0596
:1021A00031C07093B1056093B0052CC07093B30536
:1021B0006093B20527C07093B5056093B40522C043
:1021C0007093B7056093B6051DC07093B905609311
:1021D000B80518C07093BB056093BA0513C070931F
:1021E000BD056093BC050EC07093BF056093BE052E
:1021F00009C07093C1056093C00504C07093C30506
:102200006093C205DF91CF911F910F91FF90EF90E6
:10221000089590E08635910508F091C2FC01EA57D7
:10222000FE4F0C944A1FE0916F022CE4E29FF001F4
:102230001124E452F74F608171818281938154C0EF
:10224000E0916F028CE4E89FF0011124E452F74F13
:1022500064817581868197812CE630E040E050E012
:102260000E942B1FB9016BC2E0916F022CE4E29F28
:10227000F0011124E452F74F6085718582859385C2
:102280009EC1E0916F028CE4E89FF0011124E452BA
:10229000F74F64857585868597859EC1E0916F02AD
:1022A0002CE4E29FF0011124E452F74F6089718918
:1022B0008289938951C0E0916F028CE4E89FF0011C
:1022C0001124E452F74F648975898689978955C02E
:1022D000E0916F022CE4E29FF0011124E452F74FE9
:1022E000608D718D828D938D2AE630E040E050E064
:1022F000B7CFE0916F028CE4E89FF0011124E45223
:10230000F74F648D758D868D978DA6CFE0916F0206
:102310002CE4E29FF0011124E452F74F60A171A177
:1023200082A193A14CC1E0916F028CE4E89FF0017F
:102330001124E452F74F64A175A186A197A14CC165
:10234000E0916F022CE4E29FF0011124E452F74F78
:1023500060A571A582A593A520EA30E040E050E099
:102360007FCFE0916F028CE4E89FF0011124E452EA
:10237000F74F64A575A586A597A522EA30E040E051
:1023800050E06ECFE0916F022CE4E29FF001112447
:10239000E452F74F80A991A90AC0E0916F028CE442
:1023A000E89FF0011124E452F74F82A993A960EA53
:1023B00070E00E94171FC3C1E0916F022CE4E29FFE
:1023C000F0011124E452F74F84A995A9F0CFE091D0
:1023D0006F028CE4E89FF0011124E452F74F86A9C4
:1023E00097A9E5CFE0916F022CE4E29FF001112460
:1023F000E452F74F80AD91ADDACFE0916F028CE4FB
:10240000E89FF0011124E452F74F82AD93ADCFCF96
:10241000E0916F022CE4E29FF0011124E452F74FA7
:1024200064AD75AD8CC1E0916F028CE4E89FF00162
:102430001124E65EF64F54C0E0916F028E2F90E0BB
:102440002CE4E29FF0011124EE5DF64FE081E150B3
:10245000E43130F4F0E0EF5DFD4F208130E002C068
:1024600020E030E04CE4489FF001499FF00D11243A
:10247000E45EF64F40E050E060817181828193819B
:10248000EFCEE0916F028CE4E89FF0011124EE5D45
:10249000F64F08C0E0916F022CE4E29FF001112496
:1024A000E05EF64F2081622F70E049C1E0916F023B
:1024B0008CE4E89FF0011124EF5DF64FF3CFE0913B
:1024C0006F022CE4E29FF0011124ED5DF64FEACF9C
:1024D000E0916F028CE4E89FF0011124EC5DF64F6F
:1024E000608171812CC180919006909191065FCF9F
:1024F00080918E0690918F065ACF8091940690918C
:10250000950655CF809192069091930650CF609199
:102510009606709197068091980690919906E4CE60
:1025200060919A0670919B0680919C0690919D0601
:1025300093CE8091A0069091A10639CF80919E06FE
:1025400090919F0634CF8091A2069091A3062FCF41
:102550006091A4067091A5068091A6069091A706A9
:102560002EC06091A8067091A9068091AA0690914C
:10257000AB0632C06091AC067091AD068091AE069C
:102580009091AF060E94FA1DDAC06091B00670917A
:10259000B1068091B2069091B306A6CE6091B406C2
:1025A0007091B5068091B6069091B70655CE6091B0
:1025B000BA067091BB068091BC069091BD062BE6D1
:1025C00030E040E050E04CCE6091BE067091BF0616
:1025D0008091C0069091C1062AE530E040E050E0CD
:1025E0003FCE6091B8067091B906A9C06091C2064D
:1025F0007091C306A4C06091C4067091C5069FC0C7
:102600006091C8067091C9069AC06091CA0670911F
:10261000CB0695C06091CC067091CD0690C080919C
:10262000CE069091CF0604C08091D0069091D1063D
:102630006AE070E0BECE20916E0235CF6091040258
:10264000709105027CC0609106027091070277C00C
:10265000609108027091090272C060910A02709143
:102660000B026DC060910C0270910D0268C0609108
:102670000E0270910F0263C06091100270911102FE
:102680005EC0609112027091130259C060911402F1
:102690007091150254C06091A2057091A3054FC0BE
:1026A0006091A4057091A5054AC06091A60570913E
:1026B000A70545C06091A8057091A90540C060912B
:1026C000AA057091AB053BC06091AC057091AD055A
:1026D00036C06091AE057091AF0531C06091B00514
:1026E0007091B1052CC06091B2057091B30527C0FF
:1026F0006091B4057091B50522C06091B6057091E6
:10270000B7051DC06091B8057091B90518C06091FA
:10271000BA057091BB0513C06091BC057091BD05F1
:102720000EC06091BE057091BF0509C06091C005E3
:102730007091C10504C06091C2057091C305CB01C1
:1027400008952F923F924F925F926F927F928F9255
:102750009F92AF92BF92CF92DF92EF92FF920F9330
:102760001F93CF93DF9300D000D0CDB7DEB71C828C
:102770001B821A82198280916C02882309F475C128
:102780008091000290910102FC012081213009F02A
:102790006AC12181213008F466C1273028F02F500A
:1027A000223008F4EBC05FC166E00E946A0A9C8395
:1027B0008B83E0910002F09101029C818681981345
:1027C00052C19B81878198134EC18181853030F43D
:1027D000833008F080C0813088F445C1853009F429
:1027E000BDC0863009F03FC1838194819A83958171
:1027F000998369817A810E94D80BBAC09581292F6B
:102800002770392E369436943694211133943282BF
:10281000C32CD12C892E912C2380823029F0F4EA0C
:10282000AF2EF9E0BF2E04C0E4E5AE2EE9E0BE2EE7
:1028300000E010E066246394712C80910002909176
:1028400001020815190580F5980163E03695279572
:102850006A95E1F72D5F3F4FFC01E20FF31F28015E
:1028600087E048225524C301042C01C0880F0A9434
:10287000EAF78095908198239083E0900002F09091
:102880000102E20EF31EF7015080822D800FF50148
:102890000995042C01C0880F0A94EAF78529F701ED
:1028A00080830F5F1F4FC9CF63E0630D0E946A0AE8
:1028B0008B839C83E0910002F0910102EC0DFD1DE1
:1028C0009383E0910002F0910102EC0DFD1D8483E1
:1028D00065E0630D3EC0B580BB0CB282A380EB2CDB
:1028E000F12C00E010E0C0900002D09001020E1523
:1028F0001F05C0F4C801969587958A0D0E9409119D
:102900009A838983F601E00FF11F8A818383E09126
:102910000002F0910102E00FF11F898184830E5FB4
:102920001F4FE1CF63E06B0DC6010E946A0A8B83E3
:102930009C83E0910002F0910102EE0DFF1D938354
:10294000E0910002F0910102EE0DFF1D848365E02D
:102950006B0D809100029091010283C0648170E050
:10296000660F672F661F770B719583810E948E0A11
:1029700066E0809100029091010267C0FC016681CF
:10298000062F10E0695F0E946A0A9C838B83E091A6
:102990000002F0910102DF01A00FB11F9C81179688
:1029A0008C91179798135FC09B8118968C91981300
:1029B0005AC081818F3049F0803109F054C0D380F2
:1029C000E680F12C00E010E026C0E580F12CD380F9
:1029D00000E010E080910002909101020E151F05A9
:1029E00098F5F80133E0F695E7953A95E1F7E80FA9
:1029F000F91F678170E0C8018770992702C075953B
:102A000067958A95E2F761708D2D800F0E948E0A7E
:102A10000F5F1F4FDFCF80910002909101020E15D2
:102A20001F0590F4FC01E00FF11F87818A838085E8
:102A3000898369817A81C801969587958D0D0E9459
:102A4000D80B0E5F1F4FE7CF66E00E946A0A8B83A8
:102A50009C83E0910002F09101029683878368E0F5
:102A6000CF010E947F0A10926C020F900F900F907E
:102A70000F90DF91CF911F910F91FF90EF90DF901A
:102A8000CF90BF90AF909F908F907F906F905F900E
:102A90004F903F902F900895803239F0803441F06C
:102AA000803149F0E0E0F0E008C0E4EEFEE005C06F
:102AB000E2EFFEE002C0E6EDFEE01082118212823B
:102AC000138214820895CF92DF92EF92FF920F93B8
:102AD0001F93CF93DF93803279F08034E1F080311F
:102AE00049F1E12CF12C00E010E0C12CD12CC0E028
:102AF000D0E080E090E02CC042E7E42E42E0F42EEB
:102B000003E712E05AE0C52E52E0D52EC4EEDEE017
:102B10008DE396E01DC020E7E22E22E0F22E01E7D1
:102B200012E030E1C32E32E0D32EC2EFDEE083E3C9
:102B300096E00EC084E7E82E82E0F82E05E712E06A
:102B400094E0C92E92E0D92EC6EDDEE08FE696E045
:102B5000FC0120853185232B09F4FAC0488150E01F
:102B60004A31510508F0F4C0FA01E452FE4F0C94CA
:102B70004A1F0E94FF088134B9F038F4843271F0A2
:102B80008C3309F0E5C08FE0BDC0873559F08F3632
:102B900039F0823509F0DCC084E0B4C086E0B2C010
:102BA00081E0B0C089E0AEC085E1ACC00E94FF0802
:102BB000883409F0CCC087E0A5C00E94FF088A30A5
:102BC00009F0C6C01882F80180818260A5C00E9409
:102BD000FF088B3609F0BBC082E094C00E94FF085A
:102BE0008D3009F0B4C083E08DC00E94FF088A30A8
:102BF00009F0AEC01882F801808181608DC00E940A
:102C0000FF08853609F0A3C085E07CC00E94FF085C
:102C10008A3009F09DC01882F801808184607CC0F0
:102C20000E94FF088C3409F092C086E16BC00E94BC
:102C3000FF088A3309F08CC087E164C00E94FF0856
:102C4000803209F084C088E15DC00E94FF088834AA
:102C500039F0833539F0843409F07AC0F7016CC05B
:102C600089E150C0F7018081846070C00E94FF0834
:102C7000813639F08F3609F06AC0F70180818160B2
:102C800065C0F7018081826061C00E94FF088035C5
:102C900009F05DC08AE036C00E94FF088A3309F05F
:102CA00057C08CE02FC00E94FF0889839A818C3224
:102CB00011F08E33D9F4FE01E90FF11D14828B81DE
:102CC00091E0980F9B838601080F111D080F111DBD
:102CD000CE0104960E94931FF801918380831A828B
:102CE0008B818330A8F11B828DE00CC021E0290F7D
:102CF0002A83C90FD11D8C832BC00E94FF088D3001
:102D000039F58EE0888324C00E94FF088A3001F5DF
:102D10001882F8018081806880831AC00E94FF08B1
:102D2000883489F020F4813491F4F8010DC089349D
:102D300031F0823561F4F8018081806107C0F801CB
:102D40008081806203C0F70180818860808318825F
:102D5000DF91CF911F910F91FF90EF90DF90CF9077
:102D60000895482B4132A9F0413421F1413199F5C0
:102D700089E796E00E94B10881112DC09091C900A9
:102D800090629093C900909175029F7B9093750219
:102D9000089583E896E00E94B10881111CC09091CB
:102DA000D10090629093D100909173029F7B909399
:102DB0007302089587E496E00E94B10881110BC068
:102DC00090913101906290933101909171029F7BBB
:102DD00090937102089581E00895682B613271F03B
:102DE0006134B1F06131E9F40E94DC05811119C050
:102DF000809175028E7F8093750208950E94CF06A0
:102E000081110FC0809173028E7F809373020895A9
:102E10000E94C207811105C0809171028E7F80934C
:102E200071020895862B8132910561F181349105FB
:102E300009F44CC0419709F06CC080917A029091DE
:102E40007B029C012F5F3F4F30937B0220937A02DD
:102E50004817590708F05DC080917502806480931F
:102E6000750241E06FE380E10E94B116811151C00B
:102E700010927B0210927A02809175028F77809374
:102E80007502089580917802909179029C012F5FDC
:102E90003F4F309379022093780248175907C8F5BD
:102EA0008091730280648093730241E06FE380E25B
:102EB0000E94B11681112DC01092790210927802F1
:102EC000809173028F7780937302089580917602C8
:102ED000909177029C012F5F3F4F309377022093B0
:102EE000760248175907A8F4809171028064809394
:102EF000710241E06FE380E40E94B116811109C0C4
:102F00001092770210927602809171028F778093EF
:102F1000710208958AED92E0E6E6FFE0DF019C0190
:102F20001D9221503040E1F70895EF92FF920F93E8
:102F30001F93CF93DF937B01803249F0803489F077
:102F4000803151F0C0E0D0E000E010E017C0C8E2EE
:102F5000D3E001E516E012C0C9E2D3E005E616E0D1
:102F60000DC0C7E2D3E00BE516E008C0C8010E941F
:102F7000B10881110DC088818F5F88838881F70136
:102F8000E80FF11D60816111F1CF188280E001C06E
:102F900081E0DF91CF911F910F91FF90EF90089505
:102FA0000F931F93CF93DF93803259F0803481F0D9
:102FB0008031A1F0C0E0D0E000E010E080E090E0DF
:102FC00013C0C6EAD2E101E516E08DE396E00CC03D
:102FD000C0E0DFE00BE516E0C80106C0C0E4D2E1C6
:102FE00005E616E08FE696E00E944309C8010E94BC
:102FF000430918821982CB59DF4F1882DF91CF9194
:103000001F910F910895EF92FF920F931F93CF930B
:10301000DF937C018B01EB01CB59DF4F8881F801F5
:10302000E80FF11D6181C7010E94B10881110CC038
:10303000988121E0290F2883F801E90FF11D918182
:103040009111ECCF188201C081E0DF91CF911F91E7
:103050000F91FF90EF900895AF92BF92CF92DF92C1
:10306000EF92FF920F931F93CF93DF936B015A015F
:103070007901803249F0803461F0803179F0C0E02C
:10308000D0E080E090E00EC0C6EAD2E181E596E0B3
:1030900009C0C0E0DFE08BE596E004C0C0E4D2E107
:1030A00085E696E01881112321F0113009F446C01D
:1030B0004DC01982FE01EB59FF4F10828E010F5F48
:1030C0001F4F65E372E0C8010E94B11F69E372E01F
:1030D000C6010E94BC1F892B49F06BE372E0C80156
:1030E0000E94B11FB601C8010E94B11F69E372E0DE
:1030F000C5010E94BC1F892B49F06DE372E0C80135
:103100000E94B11FB501C8010E94B11F69E372E0BE
:10311000C7010E94BC1F892B49F06FE372E0C80110
:103120000E94B11FB701C8010E94B11F68E672E09A
:10313000C8010E94B11F81E0888308C0BE010E94BF
:103140000318811104C0188210E001C011E0812F22
:10315000DF91CF911F910F91FF90EF90DF90CF9073
:10316000BF90AF9008952F923F924F925F926F92CF
:103170007F928F929F92AF92BF92CF92DF92EF9207
:10318000FF920F931F93CF93DF93CDB7DEB72897AE
:103190000FB6F894DEBF0FBECDBF69832A01390197
:1031A000FB82EA82DD82CC82BF82AE821401803251
:1031B00049F0803471F0803199F0C12CD12C80E03D
:1031C00090E014C026EAC22E22E1D22E81E596E0DC
:1031D0000DC090E0C92E9FE0D92E8BE596E006C089
:1031E00080E4C82E82E1D82E85E696E0F6012081A3
:1031F000222321F0213009F4DCC0E6C0F60111825F
:10320000EB59FF4F1082C60101967C0199819D30D8
:1032100028F4973080F465E472E00FC0E981E3316F
:1032200078F0EA3128F0E03258F46DE472E005C03D
:1032300061E472E002C069E472E0C7010E94B11F5C
:103240008F8D811103C061E572E002C065E572E017
:10325000C7010E94B11FF9818F2E912C86E288163A
:10326000910408F050C0F401EA50FE4F0C944A1F3C
:103270006BE372E0C7010E94B11FB201C7010E9457
:10328000B11F99819E3061F138F4943099F19830F2
:1032900089F191110DC037C0E981E73159F118F476
:1032A000E331F1F005C0F981FB3121F1F13211F187
:1032B0006DE372E0C7010E94B11FB301C7010E9414
:1032C000B11F89818D30F9F038F48330E1F050F08E
:1032D00099819730C1F00EC0E981E631A1F028F460
:1032E00089818351823078F005C0F981FA3159F033
:1032F000F03249F06FE372E0C7010E94B11FB801DC
:10330000C7010E94B11FF4013797EF31F105F0F5C5
:10331000E45EFD4F0C944A1F69E572E0C7010E940C
:10332000B11F6A817B81C7010E94B11FF4013797E9
:10333000E931F10558F5E55CFD4F0C944A1F6BE54A
:1033400072E0C7010E94B11F6C817D81C7010E949C
:10335000B11F89818A30D1F018F4873031F416C05A
:1033600099819A3199F09D3189F06DE572E0C7013C
:103370000E94B11F6E817F8106C06FE572E0C701B8
:103380000E94B11FB101C7010E94B11F61E672E046
:10339000C7010E94B11F6D8D7E8DC7010E94B11FB4
:1033A00068E672E0C7010E94B11F81E0F6018083E8
:1033B0000BC0B60128870E9403182885811105C01B
:1033C000F601108220E001C021E0822F28960FB67E
:1033D000F894DEBF0FBECDBFDF91CF911F910F914B
:1033E000FF90EF90DF90CF90BF90AF909F908F9025
:1033F0007F906F905F904F903F902F9008956F92C5
:103400007F928F929F92AF92BF92CF92DF92EF9274
:10341000FF920F931F93CF93DF93EC01642E722ED4
:103420008091160283708623823009F484C0833031
:1034300009F4BBC0813009F0C7C080912603FE01AA
:1034400099E4899FE00DF11D11244AE061E173E0E8
:10345000878190850E94C51F80912603FE0199E413
:10346000899FE00DF11D11244AE06CEF72E0838525
:1034700094850E94C51F80912603FE0199E4899FCF
:10348000E00DF11D11244AE067EE72E08785908916
:103490000E94C51F80912603FE0199E4899FE00DDB
:1034A000F11D11244AE062ED72E0818992890E9447
:1034B000C51F80912603FE0199E4899FE00DF11D4F
:1034C00011244AE06DEB72E0838994890E94C51F44
:1034D00080912603FE0199E4899FE00DF11D1124DE
:1034E0004AE068EA72E0858996890E94C51F80914A
:1034F0002603FE0199E4899FE00DF11D11244AE0A5
:1035000063E972E0818D928D0E94C51F8091260330
:10351000FE0199E4899FE00DF11D11244AE06EE758
:1035200072E08789908D0E94C51F809116028C7F62
:1035300082608093160280912603FE0199E4899FA0
:10354000E00DF11D112460816F7381E08F938EE790
:1035500092E09F938F9383E9882E82E0982E98EAD9
:10356000A92E92E0B92E2DEBC22E22E0D22E32ED02
:10357000E32E32E0F32E07EE12E02CEF32E041E1D1
:1035800053E080E10E94B3180F900F900F908111CB
:103590001BC09091260380911602923011F4836033
:1035A00001C08C7F809316020FC063E672E080E159
:1035B0000E949517811108C0809116028C7F80931C
:1035C00016028CEF80931902809116028C7086216E
:1035D000883009F484C08C3009F4C0C0843009F00C
:1035E000CCC080917D02FE0199E4899FE00DF11D20
:1035F00011244AE068E173E081A192A10E94C51FF5
:1036000080917D02FE0199E4899FE00DF11D112456
:103610004AE063E073E0858D968D0E94C51F80911E
:103620007D02FE0199E4899FE00DF11D11244AE01D
:103630006EEE72E085A196A10E94C51F80917D0269
:10364000FE0199E4899FE00DF11D11244AE069ED26
:1036500072E087A190A50E94C51F80917D02FE01A6
:1036600099E4899FE00DF11D11244AE064EC72E0B9
:1036700081A592A50E94C51F80917D02FE0199E45B
:10368000899FE00DF11D11244AE06FEA72E083A5E5
:1036900094A50E94C51F80917D02FE0199E4899F37
:1036A000E00DF11D11244AE06AE972E087A590A9B6
:1036B0000E94C51F80917D02FE0199E4899FE00D63
:1036C000F11D11244AE065E872E085A596A50E94E7
:1036D000C51F80911602837F8860809316028091B7
:1036E0007D02FE0199E4899FE00DF11D1124808186
:1036F0009181A281B381F6E0B695A79597958795BC
:10370000FA95D1F7682F6F7391E09F9325E832E027
:103710003F932F93AAE98A2EA2E09A2EBFEAAB2EFE
:10372000B2E0BB2E14ECC12E12E0D12E09EDE02E3A
:1037300002E0F02E0EEE12E023E033E048E153E029
:1037400080E20E94B3180F900F900F90811115C066
:10375000809116028C60809316020FC063E672E0BF
:1037600080E20E949517811108C080911602837F24
:103770008093160283EF8093180280911602807363
:103780008721803209F48BC0803309F4C6C08031B0
:1037900009F0D2C080917C02FE0199E4899FE00D7E
:1037A000F11D11244AE06FE173E087A990AD0E94FA
:1037B000C51F80917C02FE0199E4899FE00DF11DF7
:1037C00011244AE06AE073E083A994A90E94C51F0E
:1037D00080917C02FE0199E4899FE00DF11D112486
:1037E0004AE065EF72E083AD94AD0E94C51F809101
:1037F0007C02FE0199E4899FE00DF11D11244AE04D
:1038000060EE72E085AD96AD0E94C51F80917C028E
:10381000FE0199E4899FE00DF11D1124FF964AE015
:103820006BEC72E0808191810E94C51F80917C02C7
:10383000FE0199E4899FE00DF11D1124EF5BFF4F1C
:103840004AE066EB72E0808191810E94C51F809101
:103850007C02FE0199E4899FE00DF11D1124EB5BD0
:10386000FF4F4AE061EA72E0808191810E94C51FAA
:1038700080917C02FE0199E4899FE00DF11D1124E5
:10388000ED5BFF4F4AE06CE872E0808191810E941D
:10389000C51F809116028F7C8062809316028091F2
:1038A0007C0299E4899FC00DD11D112488819981E2
:1038B000AA81BB813CE0B695A795979587953A95E7
:1038C000D1F7682F6F7391E09F932CE832E03F931C
:1038D0002F9341EA842E42E0942E56EBA52E52E01F
:1038E000B52E7BECC72E72E0D72EE0EEEE2EE2E096
:1038F000FE2E05EF12E02AE033E04FE153E080E4D2
:103900000E94B3180F900F900F90811115C08091F5
:1039100016028063809316020FC063E672E080E4B3
:103920000E949517811108C0809116028F7C8093A8
:1039300016028FEC8093170290911602892F8370E4
:1039400071F49C7F916090931602909126039F5F83
:1039500090932603943018F01092260327C090917C
:103960001602892F8C7071F4937F946090931602E5
:1039700090917D029F5F90937D02943018F0109299
:103980007D0214C090911602892F807311F081E09E
:103990000DC09F7C90619093160290917C029F5F76
:1039A00090937C02943098F310927C02DF91CF9137
:1039B0001F910F91FF90EF90DF90CF90BF90AF904D
:1039C0009F908F907F906F9008951092660F109245
:1039D000670F1092680F1092690F1092AF0F10923C
:1039E000B00F1092B10F1092B20F83EC91E3A0E0F0
:1039F000B0E08093F80F9093F90FA093FA0FB09373
:103A0000FB0F83E896E3A0E0B0E080934110909331
:103A10004210A0934310B093441048EC50E05093F0
:103A20006E0F40936D0F80EA9FE090937E0F80931E
:103A30007D0F28E33FEF3093B70F2093B60F90939D
:103A4000C70F8093C60F509300104093FF0FE4E61A
:103A5000F0E0F0930410E093031090931010809323
:103A60000F1030934910209348106CE97FEF70934A
:103A70004D1060934C1090935910809358105093B0
:103A8000880F4093870F9093940F8093930F3093F8
:103A9000D10F2093D00F9093DD0F8093DC0F5093C4
:103AA0001A10409319101092161010921510F093DE
:103AB0002010E0931F10109222101092211090936A
:103AC000261080932510309363102093621010927B
:103AD0005F1010925E1070936910609368101092DE
:103AE0006B1010926A1090936F1080936E10509329
:103AF0009E0F40939D0F9093AA0F8093A90F309330
:103B0000E70F2093E60F9093F30F8093F20FF0935B
:103B10003010E0932F10F0932C10E0932B10909323
:103B20003C1080933B1070937910609378107093E1
:103B3000751060937410909385108093841008958D
:103B400083E08BB98AB18C7F8AB9759A6D98E9E662
:103B5000F0E0808182608083E89880818860808343
:103B6000E998EAE6F0E0808188608083ED98089526
:103B70001F920F920FB60F9211248F9310922C0365
:103B80008FEF809318028093170281E080932B03BC
:103B900080932A038F910F900FBE0F901F9018955E
:103BA0001F920F920FB60F9211248F9310922B0336
:103BB00080912A03811103C08FEF809319028F91A6
:103BC0000F900FBE0F901F9018951F920F920FB677
:103BD0000F9211248F9310922A0380912B0381114D
:103BE00003C08FEF809319028F910F900FBE0F903B
:103BF0001F90189570D088F09F5790F0B92F992793
:103C0000B751A0F0D1F0660F771F881F991F1AF0E7
:103C1000BA95C9F712C0B13081F077D0B1E00895FC
:103C200074C0672F782F8827B85F39F0B93FCCF37D
:103C3000869577956795B395D9F73EF490958095DD
:103C4000709561957F4F8F4F9F4F0895E89409C0FD
:103C500097FB3EF490958095709561957F4F8F4FBF
:103C60009F4F9923A9F0F92F96E9BB279395F695D5
:103C7000879577956795B795F111F8CFFAF4BB0F53
:103C800011F460FF1BC06F5F7F4F8F4F9F4F16C0B7
:103C9000882311F096E911C0772321F09EE8872F41
:103CA000762F05C0662371F096E8862F70E060E0FD
:103CB0002AF09A95660F771F881FDAF7880F969576
:103CC000879597F9089557FD9058440F551F59F05F
:103CD0005F3F71F04795880F97FB991F61F09F3FF9
:103CE00079F087950895121613061406551FF2CF22
:103CF0004695F1DF08C0161617061806991FF1CF72
:103D000086957105610508940895E894BB27662798
:103D10007727CB0197F908950BD078C069D028F0A8
:103D20006ED018F0952309F05AC05FC01124EECF71
:103D3000CADFA0F3959FD1F3950F50E0551F629F06
:103D4000F001729FBB27F00DB11D639FAA27F00DF4
:103D5000B11DAA1F649F6627B00DA11D661F829F1B
:103D60002227B00DA11D621F739FB00DA11D621F00
:103D7000839FA00D611D221F749F3327A00D611D1D
:103D8000231F849F600D211D822F762F6A2F1124FF
:103D90009F5750408AF0E1F088234AF0EE0FFF1F52
:103DA000BB1F661F771F881F91505040A9F79E3F89
:103DB000510570F014C0AACF5F3FECF3983EDCF3DE
:103DC000869577956795B795F795E7959F5FC1F7C6
:103DD000FE2B880F911D9695879597F9089597F971
:103DE0009F6780E870E060E008959FEF80EC0895A1
:103DF00000240A94161617061806090608950024CA
:103E00000A9412161306140605060895092E039443
:103E1000000C11F4882352F0BB0F40F4BF2B11F4B7
:103E200060FF04C06F5F7F4F8F4F9F4F0895AA1BA5
:103E3000BB1B51E107C0AA1FBB1FA617B70710F095
:103E4000A61BB70B881F991F5A95A9F780959095C7
:103E5000BC01CD010895052E97FB1EF400940E942D
:103E6000421F57FD07D00E94711F07FC03D04EF47C
:103E70000C94421F50954095309521953F4F4F4FE0
:103E80005F4F089590958095709561957F4F8F4F06
:103E90009F4F0895EE0FFF1F0590F491E02D0994B8
:103EA000A29FB001B39FC001A39F700D811D11247B
:103EB000911DB29F700D811D1124911D08950E94C6
:103EC000501FB7FF0895821B930B08950E94501F47
:103ED000A59F900DB49F900DA49F800D911D11245E
:103EE0000895A1E21A2EAA1BBB1BFD010DC0AA1F3B
:103EF000BB1FEE1FFF1FA217B307E407F50720F053
:103F0000A21BB30BE40BF50B661F771F881F991FCD
:103F10001A9469F760957095809590959B01AC0116
:103F2000BD01CF010895FC0188279927E8942191CC
:103F30002032E9F3293010F02E30C8F32B3241F053
:103F40002D3239F4689404C00E94D01F820F911D55
:103F5000219120532A30C0F31EF4909581959F4FF4
:103F60000895FB01DC010D900020E9F71197019005
:103F70000D920020E1F70895FB01DC018D91019085
:103F800080190110D9F3990B0895BB274A3031F4F9
:103F9000992322F4BDE2909581959F4F0C94D91FEF
:103FA0007AE0979F902D879F802D910D1124089581
:103FB000BB27FB015527AA27880F991FAA1FA41703
:103FC00010F0A41B83955051B9F7A05DAA3308F0F7
:103FD000A95DA193009779F7B111B1931192CB012B
:103FE0000C94F21FDC01FC01672F71917723E1F73C
:103FF000329704C07C916D9370836291AE17BF07B6
:08400000C8F30895F894FFCF06
:1040080024050000580059005A00410042004300AE
:1040180057005200560015CFF3FC24580A4D380AB1
:10402800006C5AA0006A5AA0006A6CA0006A6C5A18
:10403800A06A6C5AA0473932002A00580059005A21
:1040480000473030004730310047303200473033C6
:1040580000473930004739310049004A004B0052C7
:0A4068000046004D390A4D380A00E9
:00000001FF
